:20000000003C0120157C0200919902009199020091990200919902009199020091990200E8
:20002000919902009199020091990200919902009199020091990200CD1801002DE9F04785
:20004000A8B004460078A0F1A0015C2900F26780DFE811F0BC00DF005D005D00F7002401BD
:200060005E015D0083018C01A801E50114023B024E025A02680273027C0285028B0294021E
:200080009A02C802DF02EA02F60206031103B900B900B9001B032503B900B9003003B90049
:2000A000B900B900B900B900B900B900B9003B034103B900B900B900B900B900B900B900A0
:2000C000B9004A035303B900B900B900B900B900B900B900B9005C03B900B9006303B9000C
:2000E0008503B900B900B900B9008F03B900B900B900B900B900B900B900B900B900B900C8
:20010000B900B900B9009803A6035D00B90060681221002808BF0221617001F083BA4D28D9
:2001200000F25180A678DFE810F04B034E005B03650345044E004E006E047F04CD044E00BC
:200140004E004E004E004E004E00D604E00408054E002D05350643064E004E065D064E00F7
:20016000680682064E00AB06CF06D206DF0603074E004E004E004E004E004D074E005B0764
:200180006C077D074E004E004E004E004E004E004E004E004E004E004E004E004E009607D5
:2001A000B107CB074E004E004E004E00E5074E0047084E0058084E004E004E004E0078088E
:2001C0008F089C08A608122001F02BBA6068002801F02682A168002901F0228201783A200B
:2001E000002908BF3B200BAD002111222B462BF033FE0028607041F01582D4E901109DF8C8
:200200002C204270097800F8021B691C102200F034BE6168002901F0038208784A783A25A8
:200220008B788DF82C20002808BF3B250BA80130002B01F03680033110222BF0EFFF01F085
:2002400032B86168002901F0EB81A068002801F0E78111F8012B00F8012B2CF0EAFC6068B9
:200260000178002901F0AD81DFF8DC0E0BAE002506F108080788AF4201F0D081A9B20420D6
:2002800000221423009628F06BFE607020B92CF003FA002801F023820135ECE76068002875
:2002A00001F0BE810178002901F00380DFF8980E0DF12C0A00250DF11C0800260AF10809CE
:2002C000CDE90955CDE907550788B74201F0D781B1B2042000221423CDF800A028F040FE8C
:2002E000607098B960684946082204302AF0F6FD002801F0C2814DB960684146082204300C
:200300002AF0ECFD0025002808BF35460136DCE76068002801F084810178002900F0E3876F
:20032000DFF8240E0DF12C09002709F108080588BD4201F07781BEB2042000221423CDF829
:200340000090314628F00CFE607020B92CF0A4F9002801F0A6810137EAE7DFF8F00D4FF4B2
:20036000807100781FF098FF01F058B96068002801F056814188008828F0EAF868B9606880
:2003800001224188008823F095FA60684188008828F0DEF8002801F09B816168097941700F
:2003A00001F03CB96168002900F07087DFF8A05D087885F8260095F872204888E882087AAC
:2003C0002876488968834868A8628889A884887B85F83800C87B6871087CE87048692863E0
:2003E00088696863087F824202D024F0FDF9616805F139001D312CF067FC95F82600082872
:2004000040F04C87DFF8482D212074212CF046FA00200221002525F0CDFF00F040BF60685B
:20042000002800F03587007824F0DEF96168DFF8205D287E4978884212D029760BA9E12001
:2004400028F0C0FB606841789DF82C00884207D08DF82C100BA9E12024F03CFB60684078A5
:20046000012101FA00F0A8622AF028FA00260120A5F870601EF02CFD00F00BBF6068002894
:2004800001F0CE8001884088ADF81C00ADF82C100BA9532024F01EFB07A9502024F01AFB8D
:2004A0000DF11B01E12028F08DFB60689DF81B100079814201F0B2808DF81B000DF11B01E0
:2004C000E12024F007FB01F0A9B86168002901F0A780DFF8800C2CF0ACFB6068DFF8782C40
:2004E0000189807A1180DFF8741C087001F096B86068002801F09480002161708178008861
:2005000021F0F0F901F08EB8A068002801F088800020607023F03CFE002800F0E886A168B5
:2005200000F08FBE6068002801F07A800021617000780AF08DF801F075B86068002801F0BB
:200540006F80007824F00AFB01F06BB8A068002801F06680002060702CF0FEF8B2E000204C
:20056000607026F055FB01F05DB8A068002801F05780002060702CF0CDF9A3E00020607002
:2005800026F07EFB01F04EB86068002801F0488000216170017D19B1C17CDFF8C42B51742A
:2005A000817D19B1417DDFF8B82B9174017C19B1C189DFF8AC2B1181017B19B18168DFF81F
:2005C000A02B5160817C19B1417CDFF8942B51730179002901F026800068DFF8841B086041
:2005E00001F020B8A068002801F01A80DFF8701BD1F80D20C0F80D2091E82C0085600D7B28
:20060000C0E900230573B1F81110A0F8111001F005B8A068002801F0038000216170411C72
:2006200024F07AFA00F0FEBF6068002800F0F8870021617022F092FEA168088000F0F2BF60
:200640006568002D00F0EC87EB88AA88698828782E890A35CDE9006516F0FAFC00F0E1BF6A
:200660006068002800F0DC8782884188007806F07DFF00F0D6BF6068002800F0D18700F1CC
:20068000120125F06BF900F0CCBF6068002800F0C7874168007822F01FFF00F0C2BF60689B
:2006A000002800F0BD8700216170007826F0F4FF00F0B8BFA068002800F0B28700206070BB
:2006C0002AF06CF9A16800F0BDBD0020607021F08FFD00F0A7BF6068002800F0A1870068D5
:2006E00026F0B2FA00F09DBF6068002800F09887006805F0A5FB00F094BF6068002800F0CD
:200700008F8700680DF03CFE00F08BBF0020DFF8541A6070E07800F095BD6168002900F039
:2007200081870820ADF82C000888ADF82E00081D0BAC90E86800221D68C2087CD1E90523CA
:200740001C31CDE910238DF83C0004F11C0010222BF064FD204628F045FC00F063BF60684A
:20076000002800F05F87817A008824F019FD00F059BF60680078002800F08D8526F0DCF872
:2007800000F050BF6068002800F04A87DFF8D819097801293FF617AD2BF096FA00F041BFA2
:2007A0006068002800F03C87DFF8BC19097801293FF609AD4168008821F010F800F031BF2A
:2007C0006068002800F02C87407818B1FF20032125F0F0FD2BF024FFE84801210160FEE7EA
:2007E0006068002800F01C8703210171E449016000F014BF6268002A00F01287A1680029E0
:2008000000F00E8700206070107840B101200870DFF858090078002818BF012048709078C1
:2008200040B101200871DFF848090078002818BF01204871D07848B100202BF0F9FAD4E988
:200840000121C0F34030C87101208871107950B30120087201F10C002BF0EAFAA168088249
:20086000DFF80409007802281DD1DFF808090078C8B9DFF804590120A847A168486102200B
:20088000A847A16888610420A847A168C8610820A847A16808621020A847A1684862202096
:2008A000A847A16888626068427932B1012281F82C20DFF8C8281288CA85827932B1012257
:2008C00081F83020DFF8B82812884A86C27932B1012281F83420DFF8AC281288CA86027A0F
:2008E0003AB1012281F83820DFF89C28127881F83920427A3AB1012281F83A20DFF88C28FA
:20090000127881F83B20827A3AB1012281F83C20DFF87C28127881F83D20C27A3AB1012275
:2009200081F83E20DFF86C28127881F83F20027B3AB1012281F84020DFF85C28127881F851
:200940004120427B3AB1012281F84220DFF84C28127881F84320827B3AB1012281F84420F7
:20096000DFF83C28127881F84520C27B002A00F0C18601201122002681F846000BAD8120A4
:2009800000212B462BF068FA9DF82C00A168002881F8470000F091862CF0F5F9A168002854
:2009A000886400F0A2869DF82C20691C2BF036FC00F09FBE254655F8040F002800F030869A
:2009C00000216170017841B14078DFF8A0270121107063202BF062FF2868017941B140790E
:2009E000DFF88C27012110706D202BF057FF28688179002900F07D84C1794FF400500CF060
:200A000025FF00F08ABC6068002800F0098690F9005028462AF042FBA068002800F0FE85CC
:200A2000E9B2017000F0FABD6068002800F0F885002161702A212BF079FADFF814576068D1
:200A4000DFF860670822E98A0180A98C8181698BC182DFF854170978817205F139010E3048
:200A6000B04767682BF0B8F80146B81C0822B047606805F11C0108221830B0476068297EF6
:200A8000012280F82310DFF8241780F821208978CB0718BF80F824208A0744BF012280F828
:200AA00025204A0744BF012280F826200A0744BF012280F82720490644BF012180F82810A2
:200AC00000F0B0BD6068002800F0AA8500782BF0F1FE00F0A3BD6068002800F0A18500884A
:200AE000002110F08FFA00F09DBD6068002800F0978530462AF052FE0546002800F0158529
:200B0000E888DFF8AC1640F00C00E88002202BF0C7F8DFF8A01603202BF0C2F840F2011064
:200B2000ADF831006068016800790B918DF830000BA820F09BFC00F074BD6068002800F089
:200B40006F850BAD011D082228462BF067FB032029F0A4FE6068C07B27F01AFBDFF84C0680
:200B600083786068418886890278807BCDE90060284614F05FFE00F054BD00BF7C052043DC
:200B8000010102066768002F00F04A852BF02DFF0546002800F0DA84387828B1E98878789C
:200BA00021F001010843E880B87830B1E988F87821F0020141EA4000E880387930B1E98893
:200BC000787921F0040141EA8000E880B87930B1E988F87921F0080141EAC000E880387AE8
:200BE00030B1E988787A21F0100141EA0010E880B87A30B1E988F87A21F0200141EA401049
:200C0000E880387B30B1E988787B21F0400141EA8010E880B87B28B1A968F87B21F001015C
:200C20000843A860387C38B1A968787C21F00201002818BF0231A960B87C38B1A968F87CCE
:200C400021F00401002818BF0431A960B87D38B1A968F87D21F01001002818BF1031A96032
:200C6000387E38B1A968787E21F02001002818BF2031A960B87E38B1A968F87E21F040014B
:200C8000002818BF4031A96097F8220048B1A96897F8230021F48061002818BF01F58061A2
:200CA000A96097F8260048B1A96897F8270021F40051002818BF01F50051A96097F828004A
:200CC00048B1A96897F8290021F48041002818BF01F58041A96097F82A0048B1A96897F86B
:200CE0002B0021F40041002818BF01F50041A96097F8340048B1A96897F8350021F48011FD
:200D0000002818BF01F58011A96097F8380048B1A96897F8390021F48001002818BF01F520
:200D20008001A96097F83C0048B1A96897F83D0021F08071002818BF01F18071A96097F80C
:200D40003E0048B1A96897F83F0021F00071002818BF01F10071A96097F8400048B1A968B7
:200D600097F8410021F00061002818BF01F10061A96097F84200002800F0548497F8431033
:200D8000A86800290CBF20F0805040F08050A86000F048BC6068002800F0428481780029AB
:200DA00000F0E783C2780321002A08BF0121E1E36168002900F0348408888A7801211CF04A
:200DC000E7FB00F02EBC022060706068002800F029844188007825F077F8002840F01E8419
:200DE00000F020BC6068002800F01A8400216170007825F09DFE00F015BC6068002800F0EE
:200E00000F84A168002900F00B840021617000782AF07CF9A168087040002BF0B4FF0146BF
:200E2000D4E901025160007829F01EF9FAE36068002800F0F583A068002800F0F1830026AA
:200E4000C0E9006660684188007828F0B1FC002800F0CF8366700546A16800880880A878F1
:200E60000028887000F0DE832BF08DFFA1680028486000F0D7838A78E91C2BF0CFF9D1E399
:200E80006068002800F0CC830021CDF83A10CDF83610CDF83210CDF82E1002794188ADF8F5
:200EA0002C105AB1816849B10F2A28BF0F228DF82E200BA803302BF0B1F9606800780BA945
:200EC00001221EF03FFEACE32AF026FFA9E36568002D00F0A5832F7838462AF06BFC00286A
:200EE00000F05183D0209CE36068002800F0988300782AF05FFC002800F092830546007BE4
:200F000026F07CFB0028607040F08C83DFF8E40A4168002900F0868300220C462346002C74
:200F200000F0CD83AB4200F0CA831C681A46F5E76668002E00F07483357D28462AF03AFC34
:200F4000002800F06D83307F102141EA4007717F002908BF4700B07F002818BF47F008079C
:200F6000F07F002818BF47F0200796F82000002818BF47F0400796F82100002818BF67F075
:200F80007F07D6F8188028462BF0B8F9002800F0478305466068827A01788DF835208289DC
:200FA0008DF83410ADF836204A1E022A05D3032900F047840F2940F049844188ADF82C103B
:200FC00000F044BC61680220002900F02A830A888DF834004988ADF82C200BA802221DE08F
:200FE00061680220002900F01C838DF83400002308880A794988ADF82C000BA828F0ECFF07
:201000000FE361680220002900F00B838DF83400052208884988ADF82C000BA800232AF04A
:2010200021F8FEE265680220002D00F0FA828DF834002E7B00272888AB79AA886988ADF80A
:201040002C00A8682D69CDE90006CDE902570BA817F028F8E5E265680220002D00F0E182E3
:201060008DF83400EE682F7C4FF0000C2888EB8869882A79ADF82C00287A6D698DE8C10035
:20108000CDE9035C0BA816F0B5FFCAE26168002900F0C68202208DF83400887B0D88421E25
:2010A0008DF82400022AADF82C5005D3032800F0A2820F2840F0A482088AADF81C009FE2C2
:2010C0006068002800F0AC8202218DF834100188ADF82C10817B4A1E8DF82410022A05D38B
:2010E000032900F0B0820F2940F0B382018AADF81C10AEE26068002800F0928202214FF6BD
:20110000FC728DF8341001888A1A032A11D8022A0FD02BF079FAADF82C0060680021837A05
:20112000C27A0091811C0BA824F056FE607060680188ADF82C10837AC27A00210091811CA0
:201140000BA824F049FE6CE254F00200036E0020C05E00200825002006250020042500203D
:2011600080200020B32600201C250020EE260020326E0020F3260020D5FC01009E26002072
:201180009A260020A2260020E4260020E1260020D6260020E2260020ED260020D7260020A2
:2011A000F02600201DC2020004230020806C002079630200BDBE020062680220002A00F064
:2011C00030828DF83400002310889178D278ADF82C000BA820F0D6FA23E26168002900F04B
:2011E0001F82CA7A887A0B7B4D7B002A18BF40F00200002B18BF40F00400002D18BF40F01D
:2012000008008A7B002A18BF40F04000C2B208880231002325F01CFC03E26068002800F004
:20122000FF81A168002900F0FB8100780BA929F0EBF80020BDF82C206070D4E90101A1F81F
:20124000012000780870EDE16068002800F0E881B0F80110ADF82C1000780BA929F02CFF5C
:20126000DFE16068002800F0DB81017A427A00231FF0A2F8D5E16068002800F0D18181788E
:20128000C2780088002326F0FBFFCAE1022506E002266670C6E129F0A6F8C3E100256570A7
:2012A000C0E127F01DF80BAA284611212BF0F6FAB7E100F10C010BA810222AF0AFFF6068F6
:2012C000D0E907120430CDE90F1207A928F096FE0028607000F0FE816168488804310BAAEB
:2012E00021F041FD9DE101302AF0B7FB99E1012097E1017A89B1C168008A420701D0642902
:201300000BD315F085FA002001210CF09FFADFF8EC26352028212BF0C1FA2868817C41B1B8
:20132000808ADFF8DC260221108044202BF0B6FA2868817D41B1008BDFF8C8260221108065
:2013400046202BF0ABFA2868817E41B1808BDFF8B8260221108083202BF0A0FA2868817F8B
:2013600041B1C07FDFF8A4260121107029202BF095FA286890F8201049B190F82100DFF844
:201380009026012110702B202BF088FA286890F8221049B190F82300DFF878260121107007
:2013A00043202BF07BFA286890F8241049B190F82500DFF86426012110702E202BF06EFA73
:2013C000286890F8261049B190F82700DFF84C26012110702F202BF061FA286890F8281016
:2013E00049B190F82900DFF838260121107030202BF054FA286890F82A1049B190F82B00B3
:20140000DFF82026012110702C202BF047FA286890F82C1089B190F82D20102A28BF1022AF
:201420008DF82C20016B0BAC601C2AF0F7FE8120112122462BF032FA286890F8341049B155
:2014400090F83510102928BF1021826B62202BF025FA286890F83C1041B1006CDFF8C8253F
:201460000421106084202BF019FA286890F8441049B190F84500DFF8B425012110704B2015
:201480002BF00CFA286890F8461069B1DFF8A04500F14701082220462AF0C0FE47200821B6
:2014A00022462BF0FBF9286890F84F1031B100F15002012008212BF0F1F9286890F858104A
:2014C00041B190F859008DF82C000BA9522023F001FB286890F85E1049B190F85F00DFF815
:2014E00054250121107033202BF0D8F9286890F85C1059B190F85D00DFF83C250121107045
:2015000032202BF0CBF922F0DBFC286890F86010002900F0878090F86100DFF8D8144870A5
:20152000DFF8CC1481F868007CE01C202BF02BFC002877D01C2105462AF0F8FC28462E7127
:2015400026F012F900287FF4DBAA91E01C202BF01AFC002866D01C2105462AF0E7FC28461B
:201560002E7126F001F9002800F082806768FFF713BB002103794279002B18BF40310088BC
:201580000FF0CEF94DE02AF021F9DFF868140978884270D22BF029FA20B18146007B0028CB
:2015A00000F08E811C202BF0EEFBD8B31C2181462AF0BCFC89F804604FF0010865682F78EA
:2015C00080E1013007A928F019FD607050BB07980021182240880BAB2AF03EFC607008BB61
:2015E000A068DDE90F12C0E9071209300BA9FEF70DBEB12015E0103107A82BF01AFB6168DE
:20160000DFF8EC03C08A854210D1887A0A7E0C310123009107A90AF0D3FC08B1002000E064
:2016200002206070012028B0BDE8F08788890A7E8B7A07AE0025CDE90006CDE902258A1CEC
:201640000BA9212011E000F1100107A82BF0F1FA60688189027E837A07AE0025CDE90225E7
:20166000CDE90016821C0BA922201CF029FED8E728462BF086FBD120D3E737463546012D3D
:20168000D0DB60680822011D48462AF0C7FD60681422D0E90710CDE90B10B9B20BAB04203F
:2016A00008E00BAD142128462AF040FC0420314614222B4627F06AFCB3E78E6419E0AB4260
:2016C000B0D1A94208BF021D286810602846E3E0C820A6E70798182140880BAAE6E5A068EA
:2016E000DDE90B12C0E907129CE70020886481F847006068007C70B110202BF044FB0346BE
:20170000A06803653BB10121102280F84C10622000212AF0A1FB6068417C31B1A168012259
:2017200081F85420C04A12688A65817C39B1A168012281F85C20BD4A127881F85D20C17C7D
:2017400051B1A0680121082280F85E10A8495F3039312AF063FD6068017D59B1A56801206B
:2017600085F867002AF038FA014605F168002BF060FA6068417D79B10BA9522027F022FA16
:20178000A068012180F870109DF82C10002918BF012180F871106068817D19B1A16801227F
:2017A000A1F87220C17D51B1A168012281F87420A14A1278002A18BF012281F87520017E5F
:2017C00039B1A168012281F876209A4A127881F87720417E51B1A168012281F87820854A99
:2017E0005278002A18BF012281F87920807E00283FF418AFA068012580F87A507C4890F80D
:201800002600082818BF042817D0A8B921202BF0CEF9742810D10BAB2120002174220025B4
:201820002AF01AFB48B99DF85200043820F00400B0FA80F0450900E00025A06880F87B5089
:20184000F0E6811C0BA82BF0F4F96068817B31B348002BF098FA88B3616806460022887B48
:20186000904206D00B6933F8123026F812300132F6E78B8CCA8AD1F828C091F82210FFB2E7
:20188000CDE90406CDE90271CDE900C80BA8294622F0BBFE607030462BF073FAC2E6838C6F
:2018A000C28A816A90F82200FEB2CDE90018CDE902600BA8294608F0E9FDB2E61020B0E653
:2018C0004FF000084E4606F80C7F287A30734A48706014202BF057FA0028B06045D01421DB
:2018E0002AF024FB6268D9F8140052688179927901F0F00102F00F02114481716168D9F87B
:20190000140049680A780270D1F80220C0F80220CA79C271097B017350002BF034FAD9F871
:201920001410886060B1CA7900239A4208D065686D68AD6835F8135020F813500133F4E79F
:20194000087B40002BF01FFAD9F81410086160B1097B0022914208D063685B681B6933F893
:20196000123020F812300132F4E7304628F06AFBB82802D00746022806D1307825F03EFED1
:20198000304628F05FFB074637B1B8F1000F0FD048462BF0F6F923E0B8F1000F3FF442AE1D
:2019A000484625F0E1FE00287FF43CAE484673E7D9F8140078B1816821B108462BF0E1F92C
:2019C000D9F81400016921B108462BF0DAF9D9F814002BF0D6F90020C6E90000C6E902005B
:2019E000B82F3FF47FAA022F3FF47CAA1AE600BFC05E0020782500207D5700206068002084
:201A00009E2600209A260020A2260020E4260020E1260020D6260020E2260020ED26002052
:201A2000D7260020F026002088260020D3260020B0250020DB260020DC2600202DE9F04FDF
:201A400099B080466FF007000DF11C0B063098F808105A46ADF85200D8F8040011F0D4FBD3
:201A6000002800F0B5809DF81E609DF81F409DF82070BDF826502AF0C1FD844240F0A880CC
:201A800025F003004FF6F87480B2A04200F0A080012F00F29D80022E80F09A80B8F8280088
:201AA000ADF84800B8F83200ADF82A009DF82200D0B1D8F804109DF81D209DF8383001207C
:201AC00029F06EFA08B1CF2083E0DFF85807C078012809D1B8F828002BF01DF820B1417976
:201AE00001F0E701083141719DF8210068B1BDF82610FF2027F05CFE9DF82110D8B141F058
:201B000001012C268DF8211016E09DF83900002864D09DF83D10FF2902D0002940F0ED80F9
:201B2000DFF80407BDF82620C18A8A4240F0EE800120222607E0082601F00300012808BFB1
:201B400046F0110601203746B107DFF8DC9658BF67F07F07002808BF37469DF8220030B999
:201B600099F80B0018B107F02200222813D117F0400A58D0119899F80E200178920718D4DA
:201B80000C291BD8012241F290438A401A4245D1032940D012E0F8B200F0420042287FF4D1
:201BA00092AF1198007800F0FE0006287FF48BAFDDE7A1F10C0212F10C0F2AD8B9F81600AF
:201BC000BDF82620824203D1BDF8280026F0D8F9D32017F0D8FC19B0BDE8F08FBDF8260018
:201BE00024F092FD0238DFF84016B0FA80F0CA8A4109BDF82600904208BF0231002900F063
:201C00008C809DF81E20002A00F03A8101F1400738E1032902D140780D2804D007A823F03C
:201C2000AFFF0128D7D0B9F82400B8F8441081420AD198F84620B8F84210B8F828000023BC
:201C40000093002310F090F89DF82200E0B1B8F84210B8F8280026F07BFCB8B30646D8F810
:201C600004009DF81D10F2780844417B8A421EBF00227260F1700130042127F08DFA716861
:201C80008842A8D30130706099F80E008007A2D59DF84D0058B1BDF8280029F02FFC00282D
:201CA0006FD0D8F80400417801F0DF0141709DF82E00A0B3D8F804008179013981718DF841
:201CC0002E1007F07F0009062CD12AE09DF84D00002841D0042028F04DF800283FF47BAF19
:201CE00001464FF4B2700880B8F828004880DFF83C0500781FF03EFC6DE7109A9DF83C0068
:201D000022F03EFE30B1012000261CE790F826000428F8D10026002015E70027B2E007F0B5
:201D20007F000746390702D44FF0000A49E0F9B24A0737D4C9069DF821103DD5C1F3820269
:201D400012B1072A18BF013A002A08BF074601F0E30040EA82012DE099F86C0001287FF418
:201D600093AF11980078062803D1BAF1000F7FF48BAFE01DBDF82A1080B281423FF42BAFA9
:201D800044E1D32017F0FFFBDFF8A4040078002800F0AD80DFF89C1451F82000C0EB001043
:201DA0008100A6E09DF8210000F0E00100F0E30040EAD1018DF82110D8F804004FF4805A1F
:201DC000017299F82600092801D0042829D1B9F81610BDF8260088420AD024F095FC02288C
:201DE00006D09DF8210000F0030001287FF4F3AE9DF81E0000285BD011989DF83810007823
:201E0000042808BF02296DD0072808BF042900F0838003287FF4DFAE07A8002112F0FEFC5A
:201E2000D9E6FEB217F0610F49D0F00708D0B8F8281007A816F03AFF002871D007F09F07F8
:201E40000025FEB2B80605D529F0D0FD07A815A906F0ACFA700640F13981B8F8281007A82E
:201E60000DF152022B4611F04BFA002800F08180054611980078012808BF4AF0100A25E18A
:201E800001F1200724F040FC0138B0FA80F0400947EA00069DF81E0000283FF453AE11984E
:201EA000007829F067FB012818BF07F07E0649E629F09CFD07A815A906F078FA8BE69DF8F8
:201EC0001E00012864D111980078032853D005285ED1B8F8281007A80DF15202002311F0AE
:201EE0000FFA78E607A9002012F00CF973E6D1480168D1480268BDF82800904701287FF4F6
:201F00006AAECE480168BDF828008847CC480168BDF8280088475EE607A819F0AFFA5AE670
:201F200028F06CFB9DF82E100546BDF8280021B9B8F8281088423FF484AFB9F8161081429B
:201F400004D1B848807800283FF47BAFB8F8281007A82A460AF096FA002800F09E80300731
:201F60004AF0040ABDF8260048BFE01DADF8520067E70025AAE0BDF8260029F0BFFA38B1B0
:201F8000B8F8281007A80DF15202002311F0B8F99DF82E0088B325F087FD00287FF41BAE88
:201FA0009DF83900B8B3109A9DF83C009DF83D1022F0E6FC002873D09DF83D00002878D0EA
:201FC00010992AF035FD9DF82430ADF8520011209DF823209DF821104AF0400A002B08BFE7
:201FE0000920002A18BF0830002918BF0130D8F804100A5C013A0A5465E09DF81E0001284A
:2020000004D11198007803283FF4E5AD07A841461FF0C8FDDFE59DF82010BDF82600002943
:20202000ADF8520000F0CF804020BDF826100BF11D0200EAC7099DF820004B461AF0A6FA5A
:2020400038B1D8F804004AF0200A017801F03F0101709DF8390048B1BDF826100BF1200076
:2020600023F070FD4AF0400AADF852009DF81E00012806D0BDF82810BDF82600002216F0C3
:2020800075FABDF82810BDF826004A4613F010FF002818BF4AF0200A15E007F0DF07CFE67D
:2020A000BDF82610BDF828000B2200231BF07EFF91E5BDF82600ADF852002AF02CFD0028CD
:2020C00008BF4AF0400A28F099FA0546A01DBDF8521080B20E1A5B4818BF2E460078012802
:2020E00005D1E01DB8F8321080B281422ED178B2B0F1FF3F3FF76FAD002E3FF46CADB8F8A2
:2021000008002AF040FE00283FF465ADB8F80820D8F8041005462AF081F89DF81E10002075
:2021200098F80830B8F8282016908DF85410BDF8521015ACCDE9006ACDE90204284614F02A
:202140008DFC68B328462AF01CFE44E5B8F828108142CCD0601CBDF8262080B28242C6D2C4
:20216000BDF828008142C2D02AF0D5FC0028BED0017901390129BAD8408801218DF8541049
:20218000ADF8600015AD284620F020FB0028AED0281D1FF08FF80028A9D027F0E7FEA6E734
:2021A0002048407800283FF416AD00208DF81860ADF81900DDF826004FEA3040059005A820
:2021C00029F040FE07E531073FF52EAF9DF81E1001293FF429AF00211AF098F920B1407935
:2021E00001380228FFF420AFB8F84410BDF8520026F0AEF930B1807828F090FC013807280D
:20220000FFF412AFBDF8280029F078F918B104208DF8200008E7BDF82610BDF82800022236
:2022200043E700BFEC240020C05E0020036E0020E5260020C8EA02004C22002054220020B3
:2022400050220020F12600202DE9F04F8FB00C46480718D4200471D4E00400F1CC812006E3
:2022600000F1EA81A00700F10082200500F13482600600F13482A00400F16682600400F13D
:20228000A782002017E2DFF8D8050178062900F21082DFE811F00700C0010E020E02080262
:2022A0000E02C501DFF8BC6596F837104A0700F1C8818A0700F1ED81090740F1FA8106211D
:2022C000017096F83A00002800F0C58221F060FF002800F0C0820546F06840684078800712
:2022E00040F19482287804AB0321002223F055FB002800F0798206980188B42916D8B421C5
:202300004FF47A720180DFF860054FF4005100782AF0A1FCDFF85805016839B1DFF8540557
:202320000078FF2814BF2878FF208847F06840684078C00740F0618209205BE2DFF83C058D
:20234000DFF82475DFF818A5DFF8445548F2040848F202094FF6FE7B0088029038781EF0E8
:2023600071FC002800F0448106460078D3280DD1F089404537D0484539D048F201018842D5
:2023800040F01C81304617F041FF17E19AF80010884219D1012856D0032840F00F81DFF854
:2023A000CC0400780138012800F20881B078012877D0002840F002817078002800F0BE8047
:2023C000002020F01BFBF9E00A2840F0F780DFF8941491F837003071096A002900F0EE802B
:2023E000B01C8847EAE030461CF012F8E6E0DFF894040078002800F0E1809AF8000001280B
:2024000040F0DC8029F062FE002840F0D7807088002840F0D3800AAD1221284629F086FD71
:202420002AF098FA304629461AF01CFEBDF83400B0F5285FC0F095800120022121F072F84E
:20244000DFF84C54BAE0DFF8240400780138012800F2B4807078DFF80C2460B192F83C00A6
:2024600092F83D10013082F83C00C0B2884202D901200021A0E09AF80100032834D00228D9
:202480004BD0012840F09A80DFF8F8030078002800F08C8029F01AFE002800F093800120C3
:2024A00085E07078002851D02AF0AEF85845DFF8D8B34FF6FE7103D1BBF81600884207D0D5
:2024C000ABF81610ADF81010532004A922F002FB21F016FA28F0B2F800208BF826001FF084
:2024E00087FE4FF6FE7B69E0AB4604ADAB2000212A461EF0B3FE04200A955D464FF6FE7B6F
:202500008DF82C000AA811F08BFD2AF023FA38784FF4805141F2883220E0012050714FF4C2
:202520008060ADF8100004A81BF088FA2AF012FADFF84C034FF4805102680EE013F04AFACE
:20254000C848406AD0BB1FF053FE37E002204FF4805140F6B8328AF8020038782AF07BFBA5
:202560002CE0CA480DF10F01006804AA19F02EFA01460298C64D814213D29DF8200010B1D6
:20258000FD208DF820000420142204AB8B4626F0FDFC0BEB4B004FF6FE7B012105EB8000FF
:2025A0004172B048002180F83B1003E00020AD4981F83B000120012102F078FE304628F0A6
:2025C00089FBCBE6A74991F83E0020B1886A0028F4D08047F2E70020002102220023ADF893
:2025E000100002208DF8180004A828F03BFD8CE784F400405FE09D4800780138012868D8A7
:202600009748017803295CD0012962D14178002020F088FF5DE00120012120F083FF48E003
:202620000021322201708F4880F836108E48042100782AF010FB3CE014F03AFF84F080003A
:2026400039E00521017096F83810890736D596F83A1099BB052101600120B070002020F035
:2026600015FF022027F012FD23E080480078013801280BD80020CDE9040004A816F020FAD0
:2026800020B17948022100781DF006FE84F0020011E00421017096F83810C90709D096F8F2
:2026A0003A10002942D028F033FB0420012102F0FDFD84F004000FB0BDE8F08F052000217C
:2026C000F5E78178022904D101218170002021F03BFD84F48050EEE784F40060EBE721F0D1
:2026E00057FDD0B15F4F0546387801383870000616D05D4E4FF48041307823F0D7FA30B96B
:20270000386929F013FE10B928781FF0BFF83078402143F698222AF09EFA5248007810B936
:202720000B2029F0FBFD84F04000C4E74F49097801390129BDD8032101600120B070012005
:2027400020F0A4FE01208DE7464EDFF81C914FF0000804AD4FF0000B06F108073F685FB319
:20276000D7F804A09AF800000028F7D0F028F5D8032100222B4623F010F90028EED0069829
:20278000018821B101394FF0010B0180E6E74FF4407086F836802AF02DF999F800000AA960
:2027A0002AF0E9F9324886F8368001680029D5D09AF800008847D1E799F800005FEACB7109
:2027C0000BD04FF400514FF47A722AF044FA08E012F08AFE84F480406DE74FF400511EF063
:2027E00003FA84F4005066E7F06840684078C0070CD10E2029F092FD08E040F209302AF028
:20280000F9F8194800780AA92AF0B5F9F06840684078C1073FF44DAF17490968C1B12878E1
:202820001FF034F810B10E2029F078FD0E4D0C20402143F69822307028782AF00CFA40F273
:202840000A302AF0D7F828780AA92AF094F930E780073FF52EAF0E2029F060FD29E700BF39
:20286000606D0020542000200A6E00201C2500206C260020AE260020A822002054F0020008
:2028800078260020C5260020C05E0020386D0020AC6800202DE9F04F89B024F0D1FADFF8F4
:2028A00010158122DFF81485DFF814A5DFF82045DFF814E50A70DFF8FC140860DFF8F804A8
:2028C000FF2101700020DFF80415A8F800008AF80000DFF8F0040968007891F808B04FF6FB
:2028E000FE718EF8000059448AB2A168D1F80031DB899A4200F267810422DFF8DC54A8F820
:202900000020DFF8D02412689668330ECEF80C60C6F301592B706FF0FF0303EA1627B3B243
:20292000D1F8B86047EA1327AEF8047036781EB9B9F1020F00F04781B9F1030F00F04381C9
:202940001B0A03F0070316B1002B00F03C81DFF88CC4042B9CF800C008BFBCF1000F00F099
:2029600032813EB1DFF878643678862E02D1022B40F02981BB0416D4BBB203F00703022B86
:2029800008BFBCF1000F20D0DFF854140978862909D10020764624F08BFADFF84004B646EF
:2029A00090F800C0307800284ED0BCF1000F4BD1012800F0088103283FD0022844D1BEF838
:2029C0000400400740F0FF803EE0D1F8D40090F88300022800F0808027460520147BF246C4
:2029E000A946A8F8000029F0F1FD0546DFF8F003007886286DD1B868016C096811B9D0F838
:202A00004C05804760B2002100262AF004FAB9680A6C12685077086C00688677086C0068A0
:202A2000C47728462AF0E7F8BAF8041099F8000001F010011FF0AEFC4EE0BEF8040000F00A
:202A40000700032840F0BF80BEF80400010700F1BA80810402D4810500F1B5809EF80E201D
:202A6000C2F38107012F00F0AE809609012E00F0AA80B9F1010F11D840F0020101F0070114
:202A800003290BD117B93F2A40F29D8037B9A168D1F8AC100978002900F095804FF6FB71C8
:202AA000B9F1020F0BEB010C19D1CF4BD95D9B5D03EB01090023402AB7FA87F238BF01235C
:202AC00052091A40430616D4002A08BF09F1020915E028462AF08FF828F0CEFB75E0C14BD2
:202AE000402AD95D9B5D03EB010908D3420648BFA9F1020903E0002A18BF4FF00209C0F396
:202B000000205FFA89F11FFA8CF30A1A8EF801009A4258DC60440391B346401AA168AEF835
:202B200006007430D1F8501280B28847A6490028886048D07421CDE9019729F0F7F9A24FCB
:202B40000020B870A548007820B9387900F020008AF8000078789AF80010DFF878C24FF0CA
:202B600000092E4600299A493DD000284FF000003AD1B88800F00700032807D0012832D1E8
:202B80008868D0F8D40090F8820060B3C8684069007818B129F016F8FE280DD08C4880688C
:202BA000D0F84C02804738B989488068D0F844028047002800F0F780834F0120B870DFF838
:202BC00014C22E4610E028F049FE29F0FFFC814900240A6813681C7112680A602AF00BF8DF
:202BE00009B0BDE8F08F0020BC6804F1740184F830B06160A1657978BB88FA880029A38124
:202C0000029B228184F83A30337808BF994697F80EB084F84990019DA4F85C20FF22B8F814
:202C20000030A273CBF301195E1A797BA8F8006001F0780160F3820101EB09002074280614
:202C400000F0AE80DCF8000004AF039A10FA86F000F1080138462AF00BF956FA85F0CBF399
:202C60008105A8F80000207C00F04008CDB3B9F1020F06D1B8F1000F03D0B4F8440004AF1A
:202C800006E0BDF810000237A4F84400A4F84200564EF189884203D04FF6FF7188425ED129
:202CA000032D11D104F1320039462AF00DF8464CF11CA068323027F0EBFB454900284ED063
:202CC00094F80EB008370EE037F8020BB1898842608606D04FF6FF713B4C88423C493ED1E7
:202CE00001E03B49384CBBF1400F20D3B9F1020F06D16DB9B8F1000F0AD13348806803E06C
:202D0000A068017C490603D439880237A0F84210BBF1C00F06D32C4C3946A068283029F060
:202D2000D3FF03E0284C3888A168088528498968A088D1F8AC201278B2B1B9F1020F13D268
:202D400000F00700012802D003282FD11E4C6DB9264AA368D289B3F84230934206D01BF01D
:202D6000F6FD1BF0FDFB30E700F00700032806D0012815D1D1F8D40090F8820080B1A0685F
:202D8000D1F848128847104A50B90020D17B9070907BC1F3011100F0780008449168087478
:202DA0000BF02EF811E7084FB87808E7064CDDE71B6E0020A86D0020206E0020F26D002063
:202DC0001E6E00201D6E0020FC230020DC6D00200C010020246D00202D6E00202C6E0020A1
:202DE000236E002008F0020004F00200506C00202DE9F04F97B0DFF810850546DFF80C65BB
:202E000098F800000328307040F04C81002088F8000030700DAC204629F062FF20460021FA
:202E200027F0A3FFDFF8E894B0603A21484629F07DF84FF0FF30A9F81400C9F81000C9F84A
:202E40000C0025F00FFE0020294620F085FF06F11001F06029F0DEFED6E90502DFF8B4740F
:202E6000B0FBF2F1C9B2032928BF032189F800103970B2F5005F40F01281B0EB413FC0F044
:202E80000E81F068002800F00A814FF40050FF224FF000084FF0885BA9F80600FF2089F844
:202EA000032089F8058005900020089000200B9000200990002007900020069000200A9001
:202EC00000200C90FF200290FF200490FF200390CCB2A04580F0E9805FFA88F6002116AA2C
:202EE0000423304629F05AF9DFF830443046002115AAA0473046012114AAA047304602216B
:202F000013AAA04716996FF06F0050FA81F2C8B20E2A06D8012303FA02F245F201131A4287
:202F200003D1A0F1FE02022A04D242F28352B2EB914F1ED0304616F0C5FEDFF8D013002895
:202F4000087040F0D2803046002116AA042329F025F9DFF8C8433046002115AAA04730462D
:202F6000012114AAA0473046022113AAA0471699C8B208EB4802CA463D4609EB8209C1F321
:202F80000142090A4C46FD2804F8160F61709DF85610E270A17001D9102135E0BDF854109B
:202FA0004FF6FF7291422FD10EA823F0C9FB304600214FF088524FF400534FF4005729F002
:202FC000EDF86FF0030313FA87F7B8B250F80B104A1C01D10328F6D801220126D3B2042B20
:202FE00006D8CBB2FF2B18BF16460132090AF5E740F80B10CA480E9900684268C9489047F1
:2030000057FA86F081B22078A9F81C109DF85210702889F81A10BDF85010A9F81E109DF89E
:203020004E1089F81B10BDF84C10A9F8201011D07828D14614D07C282F4616D07E281AD099
:20304000FE281FD0FF2823D10898CDF80C800130089020E00A98D1462F4601300A901AE093
:2030600006982F460130069015E00798CDF81080013007900FE00998013009901FFA88F0DA
:20308000029008E00B98CDF8148001300B9002E00C9801300C90397808F1010818E70120C8
:2030A00088F8000017B0BDE8F08F0C98974E00060BD10B98C0B2012807D80A98C0B20128E0
:2030C00003D80998C0B2012811D99348042200240270CAB2E0B2904210D216F0F3FD3178F7
:2030E0000134084339783070F3E7884E1BE0089BD8B2A04219D1884800220270002089F856
:20310000030089F80100481E7E2189F80200B9F81C00A9F80600002024F01EF999F8020050
:20312000FE2124F019F93078BCE70A98000624D00B98059A000603D1039A180600F0848098
:20314000754802210127D5B289F80220017017FA82F0B0FBF4F101FB140089F801002846B9
:2031600016F0B0FD30702846FE2124F0F5F889F80570002000F0D8F8D5E70B98059A000694
:2031800021D06548012189F80220017011FA82F0049AB0FBF4F101FB140091B2FF2989F8B4
:2031A00001001FD10299FF2919BF89F8031001EB410089F8030000EB400009EB8000808B94
:2031C000A9F80600AFE7DDE90620104300063FF47CAF25F01BFCA04280F085804E480321D2
:2031E00001703EE0480089F8032010FA82F009EB8000818B1829A9F8061094D30739D0B237
:203200000EAA89B218F066FC9DF843004007B0D5B9F80610BDF84620002399F80300009381
:203220000323891A0EAA073989B208F0FDFD00287FF479AFBDF8441000293FF474AF9DF8C0
:2032400048001FF0E9FE6EE725F0E0FB0621A042314838BF03210329017002D0062952D08E
:2032600061E725F0D3FB054689F80C0000EB400009EB8000408BA9F80D000FF0B9F93978D1
:203280002844B0FBF1F202FB110089F802000130C2B2B2FBF1F202FB110089F801007C2042
:2032A00024F074F8FF2812D17E2024F06FF8FF280DD1FF2024F06AF8FF2808D1782024F025
:2032C00065F8014699F80100FF2918BF0846C1B289F80300490051FA80F009EB8000808BF1
:2032E000A9F806001AE70898000609D099F80200FE213C46374624F02FF82478039A40E75B
:20330000054806210170FEE7A92600200822002000660020026E0020116E0020DBC3020055
:20332000D8010010004003402DE9F04F9BB00446DFF80805406818B18047002800F03C8245
:20334000DFF8FC04DFF8FCB40B940DF1300A4FF0F8080078411E002C099118BF01218BF8E0
:203360000F109BF802900BF118049BF80110002700250A91C0B287421FD2B94517D0FEB2A5
:20338000002152460423304628F008FF0C9810F4403F40F0040018BF0135C0B27C2806D163
:2033A00030460621F82227F08BFD84F80080DFF890040C3401370078DCE7E9B201380022A7
:2033C000884204D19BF80500002800F03282DDF82CA05046BAF1000F08BF1020049013AFAC
:2033E00000200390DDE909560024280400F0E6819BF80F0010B901208BF80F00F0B200216D
:203400000CAA04234FF0000828F0C8FE0C98BAF1000F1DD010F4403F17D04FF40050DFF88B
:2034200020140134013DABF810009BF80F00097801388BF80F00012050FA86F0B0FBF1F2D5
:2034400002FB11068BF80D60CFE7A046CDE90956C0B20A9D0024702803D0E8B2702123F0D1
:203460007BFF5FFA89F600210CAA0423304628F095FE9DF83000FE2803D03046FE2123F075
:203480006BFF30460621FE2227F01AFD4FF400500BF116018BF80C908BF80D50ABF814403B
:2034A0005A46ABF81000FF208BF80E00E8B2400050FA85F0D57B01EB8000B0F806B0DF482F
:2034C00004707000A2F812B050FA89F001EB8003FE20194601F8020F33F8060F0291079089
:2034E000D7480193047812A823F02AF90A980A9A089655FA80F0013890FBF4F101FB140051
:203500000090D5B20A92B54200F04A81A81BB0FA80F040090590002006900020C00740F0BE
:2035200093801FFA8BF0162871D9C4480078002840F03C81ABF1070A28460DAA1FFA8AF45A
:20354000214618F0C7FABDF8426006F11000A0421AD89DF83E00962816D19DF83F00C107F5
:2035600001D1800703D40020AAEB060B2CE0AAEB06009DF83D2031462B4684B220461BF02D
:203580007EFD20B3ABF1080A1FFA8AF01728C0F00D81AAF11604362828463A4688BF202493
:2035A000AAEB040AA3B21FFA8AF128F0F7FD2004EAD017FA84F010F8010C962801D0013C2F
:2035C000F5E704EB0A0B0020DDF82CA0A6E7F01D83B2079813FA80F1B1F5005F01D901205E
:2035E000F2E780B28B469A4918440A1A2846214628F0D4FD069801300690BBF5005F07BF94
:2036000001204FF40051594600200791ACE7069810B18C4928F020FF0098C0B2854200F0DF
:20362000C2800A990120089E50FA81F084490978B0FBF1F202FB1102824902EB420001EB51
:203640008000B0F81CB05CE7069810B17D4928F003FF0020DDF828900590784C207800282E
:2036600040F0A48007981021C0F50052103883B20898C1F2001223F07FF821780843129924
:20368000207071480068426870489047059888B16B4800782918013991FBF0F202FB101930
:2036A00068495FFA89F0400050FA89F001EB8000B0F81CB063480799089C0123A0F814B035
:2036C0008346018280F80E900198BBF9122001809BF80D10204625F0AFF9BBF914209BF83A
:2036E0000E102046022325F0A7F9BBF81000BAF1000FC0F5005004D004998842A4BF01212A
:203700000391049988424FF07C01B8BF7821089C204623F021FE0EF06BFF05469BF80F0051
:203720000621FC22401B8BF80F00204627F0C8FB0299FC209BF80E3008709BF8021015FA63
:2037400088F00A9301443E480078B1FBF0F202FB101909F101018BF80290CAB2B2FBF0F241
:2037600002FB10118BF8011003EB43010BEB8101898B102906D10A990131B1FBF0F202FB69
:2037800010100A900998401BBAF1000F09903FF429AE039880F00100C0077FF423AE0DE012
:2037A0000120354658E7DDF8009056E726481299006842682548904700223AE07C2023F032
:2037C000E5FD0446FF281DD17E2023F0DFFD0446FF2817D19BF8014004EB44000BEB800045
:2037E000807DFF280AD016489BF8021000780144013991FBF0F202FB101403E020467E215A
:2038000023F0AAFDE0B2FE218BF80340400050FA84F00BEB8000808BABF806009BF80200BA
:2038200023F09AFD00208BF80500BBF81000C0F5005210B21BB0BDE8F08F00BF08220020B2
:20384000026E002000660020D801001000400340002000112DE9F84305460C46480414D493
:20386000A00025D4A0075FD4600500F18180200500F10881200700F13D81600040F1F88000
:203880001CF034F824F08044F2E028F09FFEDFF824140F6D3FB1D7E90A1202F0E04201F035
:2038A0000A0189184BD029F0A6F924F48044DFE0BB48DFF80474016841F080010160B878F0
:2038C000012804D1042023F0AFFD0020B87028F07DFE0646B348406D016804208847DFF805
:2038E000E0130A68904219D12A7EBAB1FA68AAB1DFF8C003806C002800F09780C16840F6C3
:2039000003020988914206D0C06840F604010088884240F08A8005F1140088E040F6C412FB
:203920000860C5E9042284E00BF078FCDFF88403006C002840F09D8024F0020498E0D7E9E7
:203940000A65D7E90A12AA43B143C7E90A1229F052F9B8680028A8D056EA0500A5D0D7F8C2
:2039600008C03869B7F9301032462B46E0479CE728F02CFE054626F0B1FA002800F0B780BE
:20398000CC48876B002F00F0B280DFF82C830420CC49002288F81800C64828F006F829F01A
:2039A00054F9C94829F024F9C4480068006B8047C8F810000125042088F8025024F040FB92
:2039C000386990F82810C8F80400490703D5436A04210022984701201DF0F8FDD8F80400D0
:2039E000457615F011F9D8F8040081680B461A465B684BB11E88A6F60306072EF7D805FA82
:203A000006F616F0830FF2D0537B03F0F003013353730023FD6853602D88A5F60305012DE1
:203A200000F28A80C8F810309FE005F1100020F085FF304629F0DFF824F01AFB78B12E6A21
:203A400028466FF4807100224FF00073B0479948806B10B11BF04AFF01E044F00204EE6986
:203A60002846002100224FF08063B04724F0005434B1984821462830BDE8F84329F097B947
:203A8000BDE8F8838C4EB078012804D1042023F0CBFC0020B07024F0EBFA38B170686FF4AB
:203AA000807100224FF00073056AA847306950B182480068006B804732697168801A000BCC
:203AC000C860002030617B4D81490022284627F06CFF02203076286C20B17E4802212830FB
:203AE00029F065F91BF002FF24F40064C0E729F0ACF841E028F06AFD054626F0EFF9A0B129
:203B0000DFF8B48198F8000000070ED498F9000000280AD4684615F057FB08B1009820B162
:203B2000DFF8B49199F8610048B329F08EF81BF0DDFE24F008049BE7034633F8385FA5B1F4
:203B400090F8445090F8456005F0F00580F8445006F0F005013580F8455000255360C563F8
:203B60004587507B00F0F000507358480022C2610160012026F042FE24F4806478E70026CD
:203B80000127602E10D009EB0600817A31B18772407A07FA00F0C0B223F060FC2036F0E706
:203BA000CC2108408C010010032088F81800464829F01EF829F049F8444F3E4D0022786940
:203BC00000207861F968F8602846444927F0EDFE3A480068006B8047D8F80C10D8F820201E
:203BE000411A02EB1130B0EB113F38BF4FF0FF3098F82410C8F8200021B1D8F80810B0EBF3
:203C0000C12F20D926F00AFEB8B140F60900414621F83C0F002048804A7B02F0F002013246
:203C20004A730A7B02F0F0020A734860F8613960B8F83E0010F4406FFAD00020C8F82000DC
:203C4000012088F8240020F063F82548002101600220002126F0D2FD022023F0E5FB1020D8
:203C600013F0A4FE98F8010020B9D8F80400503029F099F81B48807810B90D2013F096FE4F
:203C800098F8250028B1002088F82500052023F0CBFB002088F818001348C8F81C000220C2
:203CA000B5F85610B5F85420914208BF07201AF0CBFF3CE7A81F0020481D00208C0100100F
:203CC000C4250020B99E0200B063002000100440192E0100E81E0020385F002051F901008B
:203CE0000000046058EF0200012801002DE9F04FAFB004460020ADF8280094F82400012829
:203D000009D1DFF8380494F82810807831B1002800F0FD8102E0DFF82404807848B9207D0B
:203D200000F0FE00022804D12FB0BDE8F04F1BF063B8DFF808743878012806D1DFF80004CF
:203D40003979007E814240F0CD80DFF800544FF4FA60E060286828F0A9FB18B1E168084441
:203D6000E06007E0E168286828F011FFDFF8E00329F027F894F825008DF86C0048B1022864
:203D800009D11BA804F118010822043028F00EFB01E0E06A1C900DF12B051BA80AAA29460E
:203DA00019F0AAFC0646D0B99DF8381094F8260001F0030181420DD105F10E0004F134012C
:203DC000042228F0F3FABDF82810022041222B461EF006FC9DF86A0008B1DE490870B8783E
:203DE000B8B3012840F0938194F83800E3280DD1B86818B18047002800F08981F86818B143
:203E00008047002800F0838194F83800E22804D194F82800002840F07A810020002E18BFF0
:203E2000054695F80D801EAE30460021282228F012F901A80021032228F00DF994F838007C
:203E4000E32840F0C3809DF8041041F00802E320ECE0207D042800F25A81012101FA00F08E
:203E600010F0130F00F0538101A8002124224FF0000828F0F0F81EAF04F1180B04F12C09F6
:203E8000BD1C07F1060AB8F1040F45D85FFA88F0394623F0F2FE06460D2820D00A2E00F07C
:203EA000908094F825009DF878104140490701D0022614E048B948465146042227F084FA85
:203EC000002840F0338194F82500022807D158462946082227F078FA002840F01B8108F176
:203EE0000108D0E794F83800E32840F01081954828F065FF00283FF428AF924C204628F08B
:203F000062FF9148C821006828F041FE20462FB0BDE8F04F28F055BF002E52D10020616B2D
:203F2000102508269DF879209DF88530069194F838108DF81C109DF8781005EAD10506EAB8
:203F4000D101084402F00101C3F38202284440EA4110BDF8041040EA8310C0B2084394F85F
:203F60002910002918BF083202F1500140EA0120ADF8040094F8400058B18DF81D0028F007
:203F800074FF089028B194F8402004F1410128F00DFA6B48C08AADF8240094F9150001464C
:203FA00010F16D0FD8BF6FF06C0128F04EFAC8BF3B21A07D002818BF012041EAC0108DF821
:203FC0002600E17D01A802F09BF8A0E094F8251011F0070119D0022920D106F1080004F1EC
:203FE0001801082228F0E2F994F8301094F8380002228DF888109DF80410E32862F30201AE
:204000008DF804103FF421AF0AE0E16A1F919DF8041021F007018DF8041001E09DF804103A
:2040200094F8292021F0080141EAC2029DF80510022302F00F0263F3051194F82630022B55
:2040400016D394F82760012E17D0D6B94FEA980606F00706042E6DD8012707FA06F616F043
:20406000160F67D0C8F3820621F01701314408E0002B08BF21F0170103E041F0040121F0D6
:20408000130163F30512237D032B03D1E36B41F0080127938DF89000606B239001F0070030
:2040A000C9B242EA8010C1F3C00240EA4220C1F30012C1F3401140EA822040EAC120ADF880
:2040C000780094F8400020B18DF8910004F1410025901B482B46C08AADF8980094F91500CD
:2040E000014610F16D0FD8BF6FF06C0128F0ADF9C8BF3B21A07D002818BF012041EAC010C0
:20410000E17D8DF89A001EA81BAA0AF03FFB2FB0BDE8F08F01A859460822083028F046F95F
:2041200094F830008DF814000220F8E6D9F800000290F3E601F0E801A3E700BF5823002030
:20414000C05E0020C0640020906D00208C6D00207C640020F92400202DE9FE4F884608042D
:2041600026D45FEAC87004BF0020BDE8FE8FE548056828F0D6FD044628F0D1FD60434FF414
:204180007A714FF6FF72B0FBF1F14FF6FF70002D00F01A812B886C88CB1A9BB29C4240F29C
:2041A0001C81E31A94B2A342B8BF1A46ED68EEE7DFF840A3CDF804809AF800001CF042FD59
:2041C000002800F0FC8006460078012840F0EC80DAF8041096F83390D6F814B096F81380D8
:2041E00021B148468847002840F0DE80718896F83100022225F060F90546002842D0287A69
:20420000297CA0F10108FF2900F0BB80707F4F46C00718BF0027E97C287D0144B94204D89D
:20422000E974FF2101FA00F06874A969A87C96F83020896A10FB0710F16A27F0EFFF287D0C
:20424000697CB7FBF0F202FB107001228240D2B20A436A74C8457CD196F83010AB7C13FB77
:204260000713A9698B844FF4FF7303FA00F0C0B21043FF2868746CD1287C1DF07BF9FF2018
:2042800028747FE0707FC00700F08E80B07F28F035F8002800F0888004461C2028F073FDCD
:2042A000002800F081801C21054627F03FFEB07F02A926F0A9F89DF80900022128752846AC
:2042C00026F03CF9708896F8312096F8301096F83330A880287DEA71FF2202FA00F06874EC
:2042E00060680078A9742874302013FB010080B225F040FD0028A8615DD004461A20B11C33
:204300002060708CA080A01D26F0E4FEF27F04F13000B17F96F82830C4F81CB084F8198003
:20432000A062307CE273744A217563750121A075928C2282F28EA285F28C6282B6F811008D
:20434000A4F817009AF8000085F808901BF0A4FF55E728F0E6FC044628F0E1FC60434FF4FA
:204360007A71B0FBF1F0654928806348097800794843642148436249097800FB0100688020
:2043800000E04F46E87C297D6A7C01440139B94218BFFF2A0CD186F83300708806F11C01A4
:2043A00086F8342019F00FFB304626F093FC03E7C845F9D1EFE7284626F0D0F8F4E70198A6
:2043C00080F40040BDE8FE8F92B282424BD049480121007828F03FFC45E0A879022806D10F
:2043E000287CFF2837D0A86926F074FC33E028F098FC044628F093FC60434FF47A71B0FB28
:20440000F1F03F49288095F83800097888421BD295F83620FF2A06D195F83720013085F819
:20442000380085F8362095F8351095F8394082F0FF0300200126C7B2A7421DD206FA07F78F
:204440001F4214D10130F6E7EA8BA87E95F82A10E92321F0FDFC284626F080F82548012105
:2044600000781BF019FF88F00100BDE8FE8FFBB201441A4385F83620AB8F95F83440C8B21F
:2044800004FB10339EB2A64203D2FF2285F8362002E0FF2A08D12346184A174E127836798C
:2044A00072436426724302E095F83A2023466A802A8D0E0606D022F0200244432A852A6C4B
:2044C000224404E042F020012A6C2985297A85F82E10E9796A6285F82D10D9B269840549EF
:2044E000496811B188470028B8D105F1100005F04FFBB3E738250020C05E0020D026002019
:20450000D62600200C5000202DE9F04FC3B00DF1450B884601469146584628F0CFFB08F089
:20452000080500260DF1040A042E39D8F4B25146204623F0A2FB0D2803D007460A2801D14D
:204540007DE17DBB204659461CF0BEFC01360028EAD0002D51D10BF137010DF186000222B6
:2045600027F024FFBDF886009DF83A10ADF8C800C80700F083800AF1370732A90222384602
:2045800026F022FF9DF83A10012877D101F0FE00FF2104228DF83A00384627F05CFD6FE063
:2045A00001274CE10220214641225B461EF018F80746B4480BF10B0128F074F868B90BF109
:2045C0003701204628F029FB38B90BF13B01204628F023FB002800F032810C2028F045FCEC
:2045E000002800F0198128F00FFAB9F1000F18BF4FF0010984F80A9005E19DF845004006F3
:2046000061D49DF84600C00700F0A48032AF0DF14501384628F052FB0DF1860901A94846E2
:2046200028F04CFB9DF8BC00810700F1288110F001054FF03B0007F1370108BF37200422B4
:20464000484427F0B3FE0220002D08BF01209DF8BC10084349468DF8BC0001A828F02EFB69
:2046600008F060009DF805104038B0FA80F001F0FE01400908448DF805006BE0880733D4B6
:204680004FF0FF300BF1220627F0C0FD3846314626F09AFE0AF12C05E0B3384629460A2239
:2046A00027F084FE32AE28460A22314627F07EFE3046394628F0C0FA002800F0B98001A81C
:2046C00027F0A5FCB4E04FF0FF3027F09FFD32A8394626F079FE0BF1220930B33846494670
:2046E0000A2227F063FE27E00AF13B0632A90222304626F069FE9DF83A10012840F08E809B
:2047000001F0FD00FF2104228DF83A00304627F0A2FC8DE02846314628F08EFA002800F071
:20472000928032A928460A2280E03846494628F083FA002800F0958008F060019DF80400D1
:204740006039B1FA81F100F0BF00490940EA81108DF804009DF84600810608D50AF10B0019
:204760000BF10B01022227F021FE9DF84600400613D59DF805000BF10D01012240F0400097
:204780008DF805000AF10D0027F010FE0AF112000BF11201102227F009FE9DF84500800696
:2047A00005D59DF8040040F020008DF804000AF10E000BF10E01042227F0F8FDBDF884002E
:2047C000214641225346ADF8430002201DF008FF07462C480AF10B0127F064FF58B90AF10A
:2047E0003701204628F019FA28B90AF13B01204628F013FA18B30C2028F037FB60B128F0E3
:2048000003F90120A07220482146007828F060F9204628F0D4F912E0102710E041F001001B
:20482000314604228DF83A000AF1370027F0BEFD01AB0220214641221DF0D2FE07463846D8
:2048400043B0BDE8F08F32A8394628F0F5F90128EED132A8294628F0EFF901283FF42FAF77
:20486000E6E70AF12C0732A80A22394626F0ACFD00287FF433AF3846494628F0DDF90C274E
:20488000DDE700BFC05E0020126E00202DE9F04F8FB00C46080430D4A00448D4A00652D435
:2048A000E00600F10B81600600F11A81200600F11E81E00500F12081200500F12281E004D9
:2048C00000F13581600400F13C81A00700F15081A00500F15E81200700F16881600500F1EA
:2048E0006B81E0034FF0000540F1F6801DF096FFBA48C57084F48035EEE0B64800781CF0A8
:20490000A1F988B10178B44A05460020582808D0135C08308B42F9D1104450F8041C284622
:204920008847284626F0D6F984F40045D4E01FF0E3FC28B10546FDF781F8284626F0CAF91E
:2049400084F40055C8E0A34F2021387821F0AEF9DFF888820125D8F80810084317D028F00E
:20496000E0F9054628F0DBF968434FF47A71B0FBF1F0D8F80810401A4FEA500538BF6FF09C
:204980000045002908BF0D46002D00F0AE8000200421002224F0ACFF06464FF0060A4FF044
:2049A000FF094FF6FF780DF1080B002E4DD0304604210022374624F09BFF06463889401B87
:2049C00038BF002038810004EFD1B87BD0B301280AD17889400707D4386887F80DA0B721C2
:2049E000407B1FF041FCE0E739685A468DF80690ADF80480086AC97F0EF006FC01281BD195
:204A0000B87BB97A8DF838000907788A40F08002ADF8362006D540F4C070ADF83600387BE7
:204A20008DF83A00786910B1007BADF81800584601A9002203F0BAFC387B87F80DA017F0E4
:204A4000E5FEB2E701207873AFE7DFF89081614F25F0D8F800200121002224F049FF18B132
:204A6000387820211BF018FC002004210022002624F03EFF60B306890421002224F038FF14
:204A800028B10289B1B2914228BF1646F4E7A8B2B1B2814217D9D6FA55F0202180B2420024
:204AA000387828F0D8F828F03CF9054628F037F968434FF47A71B0FBF1F609E009F012FF20
:204AC00084F0100508E0387820211BF0E5FB0026C8F8086084F0200528460FB0BDE8F08F51
:204AE0000DF012FF84F04005F6E70025B0E726F04DFD84F08005EFE724F07EFD84F480752B
:204B0000EAE71DF0A3FA3748007801280CD13448007848B14FF47A7100FB01F22D484FF45C
:204B20000061007828F094F884F40065D4E72B48017819B1002101701DF088FA84F480553C
:204B4000CAE72A48006880B12749097801290CD180472748006800B180471E484FF4804121
:204B60004FF47A72007828F073F884F48045B3E72048007890B102AD284627F0D0FF27F0F9
:204B800031FD1D490B781D490A7829461CF09AFC09E017F0F1F984F400759DE71848418B8E
:204BA000012028F0E6F884F0020595E70B48012184F0080581708FE712480078022808BFC7
:204BC00016F017FC0E480121808C28F0C4F884F4806581E7036E0020A0E80200EC24002054
:204BE000DB260020DC260020DA2600203C22002048220020B5260020DF260020E026002004
:204C0000C05E00201C25002070B586B00C46080403D4600433D400203EE0C64800781CF02A
:204C200011F8B8B305460078A0F1D00106292BD9A0F131010629C0F08A801A2844D0FD2881
:204C400057D0FE286FD1162025F094F8002800F07E8006460230142127F068F9932030804C
:204C60002A796878A978EB88338130713174012A18BF0222B271E978A87831754DE022F074
:204C80009FFB84F4804007E00120884010F0750F04D05CE084F4004006B070BD01294BD1FD
:204CA000A54E6878B178814251D006F8020FA34B4FF000700021324623F0AAFC16F8010CFB
:204CC0009F4981F8680042E0302025F053F800283DD03021064627F029F99220A91D307016
:204CE000A87B0328307169D1B01D082227F096FA66E00A2025F03EF848B306460020C6F80D
:204D00000600C6F8020091203080A8786978EA7870713171B271A988318126F04BFD0028FA
:204D200040F084808AE02846FBF788F978B1A87829461CF01FFCADE7E889A0F5004106290B
:204D400013D8DFE801F0087F8A0498B0BB00284625F0C0FF9EE728461BF0FEFA0028F6D072
:204D60006988824B06460120B2E048F23601884200F0B58048F22001884200F0B88048F28F
:204D80002101884200F0BB8048F22201884200F0BE8048F23401884200F0C1801328D6D15B
:204DA00000206E460290CDE900002846314626F02FF969886E4B4FF080705AE00888F080A1
:204DC000D5F80200C6F81200E88AA6F81B00E87BB073288A3082688AF082287D3076687D8B
:204DE000002818BF01207076687E002818BF0120B076287E7077E869306295F8200086F8E6
:204E00002400A88DF08495F82E0086F82800A88C708527F0B8FF0028F06298D0AA8CA96A42
:204E200027F0FCF9287D26F0C5FC20B1007931461CF0A0FB8BE7F06A27F0A3FF304625F072
:204E400049FF84E728461BF087FA00283FF47FAF6988454B064602203AE06E4612213046B6
:204E600027F064F82846314618F0FCF869883D4B042032465AE06E461821304627F056F8C7
:204E80002846314626F036FC6988354B1020324623F0BEFB039818B127F073FF0020039060
:204EA0000598C8B953E7284624F0B5F900283FF44EAF6988294B0646202009E0284624F0B6
:204EC000AAF900283FF443AF6988234B06464020324623F09DFB304627F053FF37E7A869A6
:204EE0006988184B27F059FD4FF480001EE0A8696988174B27F051FD4FF4804016E0A8695D
:204F00006988144B27F049FD4FF400500EE0A86969880E4B27F041FD4FF4004006E0A86939
:204F20006988094B27F039FD4FF4801023F070FB0DE700BF7D57002078250020D5A40200AF
:204F4000C05E0020BB93020091930200E5930200679302003D930200A71102004D1102003B
:204F6000F1A401008572010059060200B90602005F3B020098B0BE4C01214FF001092060A8
:204F800027F0CEFC09200DF10B0501218DF80B0010202A4627F07CFC1020002101222B4633
:204FA0004FF0000826F058FF9DF90B0026F076F803AD284627F0AAFDAE4F00212A468DF829
:204FC0000C8007F11406304626F0AAF97E6027F095FC07F1080579682A4622F00BFA387069
:204FE000A548A0F80880A0F8008006AE304627F075F8002031460FF0D1FDF860012031468A
:205000000FF0CCFD38614068007826F0BDFD10B9387827F04EFD994EF868314627F0E2FDB0
:205020003869314627F0DEFD082004F8040F94482146A060387817F065F804F110010820AA
:205040001FF032FA24F030FD8E488F4A0178082021F0D6FF8D4908201DF098FA38781EF043
:20506000D3FA8B48CDF818808DF82A908DF824908DF81C9008908748CDF826008648CDF8A5
:205080002B00387806AC214627F018FD06AE4421304626F04BFF40F201103146ADF856004C
:2050A000387827F0EDFC7D487D4A0178082022F097FD7A6838784FF480614FF40073CDE94B
:2050C000003129464FF4807316F07CF88DF81880387806AD294627F0F6FC05F10609724DC4
:2050E0004FF00A0A78684FF0FF310FF0D3F90028F8D038781BF0A6FD002876D006460078C3
:20510000922815D0E5282BD0CA282DD0CB2832D0E22834D0E32836D0C5285FD130790028F7
:205120005CD1387821468DF818A027F0CCFC55E0D6F81200B17BCDF81A0030798DF827108A
:20514000318AADF82810411E8DF82600022903D303281CD00F281FD1F088ADF81E001BE038
:20516000301D27F01CFD39E0387821468DF8188027F08BFC32E0387827F08CFC2EE0301D0B
:2051800016F09CFB2AE0301D21F0DFFF26E0B11D4846082227F042F8D6F81600CDF82A007C
:2051A000F07E8DF82E00B08BADF82F00B07E8DF83100306A0D9096F824008DF83800F08CB9
:2051C000ADF8440096F828008DF84600708DADF83C00F06A1090204602F0FEFA304614F0C3
:2051E00083F910B9304625F075FDB868810723D4C1050BD52878012802D11BF0ADFB01E0F8
:2052000014F0ACFAB86820F48070B860810505D519F0F2FDB86820F40070B860410505D574
:205220001DF014FCB86820F48060B860010744BF20F00800B86055E70020CDE9060006A824
:2052400013F03EFC27F06BFD4FF47A71B1FBF0F04FF4FA61484315F0DFF9FF20032121F07E
:20526000A9F827F0DDF90F4801210160FEE700BFD821002074210020CC6C00205DA30200FA
:20528000A823002083F0020014E502008171020000F8FF07FFFF01040301000181F0020046
:2052A00044F002007C0520435A2300207FB50138062800F2DE800C46DFE800F00428465E73
:2052C0007A8C9900B54800780138012800F2D180002C00F0108100200321002421F06AF88D
:2052E000AB4DAC4E0420042132222870307827F0B2FC0820002108F0A9FA30786C704FF46F
:20530000805104B0BDE870401BF06EBC0020002527F014F8A0480121017004208DF80D00E5
:2053200024B19A48C586072025F0B8FA98480421322205709748007827F08DFC934890F855
:20534000371001F0FE0192E0944800780138012800F28F808F4804213222007827F07BFC97
:20536000002C00F0E280894C894801210170E069E0B321F069FCFAE701208DF80D0054B18B
:2053800082480021874A80F83610854827F078F9072025F083FA7E480021322201707D4814
:2053A00027F0D1FB794890F8371001F0FD015EE002208DF80D00754854B30021794A80F879
:2053C0003610774827F05CF90020032120F0F2FF072034E06D4C03208DF80D0094F83600AC
:2053E00008B90120A0712078002854D07FBD00258DF80D5094B312F033FB65480D21C82257
:205400000570624880F83610624827F09CFB29E0082180F8361061490978012911D890F8A1
:205420003A0070B900200DF10A018DF80A0052201FF050FB26F084FC22F08AFD002025F021
:205440002DFA5348002132220170524827F07BFB4E4890F8371001F0FB0108E04B4802218D
:2054600080F83610494890F8371001F0EF0180F837104648016A0029B8D090F836000022E4
:2054800003238DF80C004348007803A900910A2120F045FA7FBD206926F048FF0028A5D1DB
:2054A0003C4D4FF48041287820F000FC00289DD1002604F11000C4E9056624F0F9FD287830
:2054C0004FF480411BF090FBA079012806D194F836000B2804BF002084F836002C48A67104
:2054E0000178062946D10021322201702878042127F0B1FB43E0254C0720264D4FF480513D
:2055000084F8360001208DF80D0028781BF06CFB0020002624F060F92878022141F28832B1
:2055200084F8376027F097FBA3E7184C022000218DF80B1084F836001548017094F837009B
:205540000DF10B0100F0FD0084F8370001208DF80D0052201FF0BEFA26F0F2FB22F0F8FCAC
:20556000002025F09BF9E06900283FF482AF21F06BFBF8E7C178062904BF0021C17094F82E
:20558000370000F0F70084F8370072E754200020606D00200A6E0020CE2600201C25002053
:2055A000C05E0020A226002092B0DFF8B892D9F8000010B1002180F84510483022F020FF39
:2055C00027F004F88046072012F0BCFC19F072FB10B1A54827F098F91CF050F801AD2846D5
:2055E00026F074FE0427002029468DF8047026F075FE9E4C206026F09FFA0AAD284626F093
:205600003DFD002029468DF8287026F03FFD984E306026F09BFA06AD284626F03FFD00209E
:2056200029468DF8187026F041FD3168914D286019B9914827F068F9286810B98F4827F031
:2056400063F9206810B98E4827F05EF91EF0C8FCD9F800004FF0FF3438B1CDE9104410A998
:20566000082225F03BFC01281BD1CDE91044082027F089FB002846D005460026052E04D814
:2056800027F0CCF9A8530236F8E74FF6200029460822E8807B4826F0C1FD284627F071FB2E
:2056A00009E0D9F80010CDE910440029DFD07548082226F0B3FD10AA0120082127F0E8F896
:2056C000092800D0D8B923F0E1FE800712D4CDE91044CDE90E440EAB01200021082226F08C
:2056E000BBFB60B90EA810A9082225F0F7FB002800F0B280634A0120082127F0CFF8614972
:20570000E2201FF0E7F914F077F8242027F03BFB5D4E002830604DD05C4F5D4C07F10C05B7
:2057200027F00DFA5B498968D1F84C1388473068056007F1100527F002FA20F031F83068D1
:20574000456007F1140527F0FAF923F0D5FA3068856007F1180527F0F2F91CF051FB306823
:20576000C56007F11C0527F0EAF921F059FD3068056107F1200527F0E2F921F0C1F830681B
:20578000456107F1240527F0DAF91FF05FF93068856107F1280527F0D2F91CF04BF8306885
:2057A000C56107F12C0527F0CAF9387011F016FA306805621AF0C0FA26F08DFE404627F006
:2057C0001AFA19F04FFB27F04CF901201FF088FE1BF0F0FA31480078022808D12E48007879
:2057E000012804D14FF40040012108F02FF8274D4FF48041287826F05BFFDFF8A4904FF015
:20580000000868684FF0FF310EF044FE3068002750F82710096821B9791C082F0F46F7D38D
:20582000EFE727F0F6F8316851F827100C68C1F8008027F019FA59F82720002021469047A7
:20584000044627F0E6F8316851F827100A6822430A6027F009FAD4E70A480EA9082226F091
:20586000DDFC4CE7602600205BE902004C6D0020506D0020546D002079E902008CE90200BE
:205880009FE90200FC6C0020D46D002000200020F57302000C010020F32600201C25002024
:2058A00030EC02002DE9F04F89B08A4608040DD45FEACA7040F01D815FEA8A7000F12B814E
:2058C0005FEA0A7000F13381002042E1A24F38781BF0B8F9DFF88892A04C06464FF0000B4D
:2058E00048F21508002E00F001813078312838D0322849D0D32840F0B380F089404573D096
:20590000382840F0AD80CDF820B0CDE906BB304606A922F085FC9DF81C10052968D8307B2C
:20592000002840F09D809DF81D00002800F09880052800F29580069826F04DF8002840F08B
:205940008F80707C87497870708808809DF81D00214601388DF81D0006A890E82C002CC1E1
:205960007EE0B87803287BD899F82E10804826F032F8002874D1FF207C49607170880880A2
:20598000B088794908806BE06079FF2814D0002019F09EFA0246B9F8701078783346CDF8EE
:2059A00000B014F073FA6079002859D038780821322227F050F953E099F81810706820FA31
:2059C00001F2D2071ABF3144097A002106F1080200231B2B42D020FA03F5ED0702D0D55C84
:2059E000A9421ED80133F4E7304623F07DFE37E0FF293DD0FE2956D199F872109DF81E0053
:205A0000884202D860BBFF292AD11EF0EDFE069900201B2859D021FA00F2D20757D1013041
:205A2000F7E7B9F86E004F49334608804E4802884E48018810200090002014F027FA01206B
:205A4000F870B87840B93C2002214EF66022B880387827F000F9B8780130B87084F805B0BE
:205A6000304625F037F938781BF0ECF8064639E799F872109DF81E00884203D80028EFD10D
:205A8000FF29EDD11EF0B0FE069838B1D9F82810814203D0C9F8280024F010FFBDF820005D
:205AA00025F010FEDCE7307B0028D9D170882D49802200230880707CCDE900BBCDE902BBF8
:205AC000CDE904BB12F0A8FFCAE71B2000E0C0B299F818108142C3D02649087099F80700DC
:205AE000642100FB01F23878012162E78AF400402FE020491A4C08782076E1201EF0EAFF6E
:205B000024F0DCFE0020A4F87000012019F0E0F98AF001001DE010488188B1B101394EF6AF
:205B2000602281800078022127F095F80FE00B4C607938B12179206825F04DFF10B9607976
:205B4000013860718AF0080003E0002181708AF0020009B0BDE8F08F802300209C6C002080
:205B6000C05E0020E26C00209A6C00200E6C002000F8FF07066E00202DE9FE4F0746086807
:205B80000024B0B1D7E9018A0E4626F01FFD8146D8F8E800082888BF0124B068204202D147
:205BA0007068204208D003203074484627F023F800242046BDE8FE8FD8F8C01069B198F846
:205BC000F8100029EFD006213174D8F8C410C8F8C4604E6198F8FC100DE000210522C8E950
:205BE0003066C8E93411C8E9361198F8FC10002908BF0122327400220129726109D10220B1
:205C00004FF4E02188F8FC0098F8FB0022F058F9706889490138884205D8042022F010FA0C
:205C2000062022F00DFA022022F00AFA98F8F80040B9DAF83C003168814203D298F8FC00A1
:205C400000286CD0D8E9361009B118B900E028B326F07DFFDAF80000416941F001014161B0
:205C6000484626F0C8FF98F8F80008B10124A0E708F16C05D8F8EC10284626F0E3FE002809
:205C8000F4D0D8F8C0000321017438460BF0DEFA28460021002426F0D5FE8AE79AF8040023
:205CA00027F04DF8654CDAF810100222206991FAA1F1B1FA81F14368D8F8CC0040680068A7
:205CC00098472069DAF8141002224368D8F8CC0091FAA1F1B1FA81F14068006898479AF840
:205CE000040024F07BFC9AF8040027F02AF826F02EFF0020C8F8E000D8F8C0000068B0F5A6
:205D0000806F01D926F023FF98F8FE000028A1D1DAF80000416841F0020141609AE798F8F9
:205D2000F90020B1D8F8EC0001307FF48BAF484626F061FFB2683AB1D8F8E80002210928EA
:205D400038BF0121009103E008F1F40200200090746834B1D8F8E8000227092838BF012725
:205D600002E008F1F6040027DAF80000334D416841F002014160D6F800B0D946BBF1000FFF
:205D800040D0D8F8E800019209284FF0010011D22A68B9F1000F1FD0C0071DD02178DAF8FB
:205DA00000009268904700281EBF3C44A9F101090120EDE72A68B9F1000F16D0C00714D018
:205DC0002188DAF800009268904700281EBF3C44A9F101090120EDE7DAF80000D26802A9A2
:205DE0009047DDE90120107007E0DAF80000D26802A99047DDE9012010800098ABF1010B39
:205E00000244BBE7D8F8F000DAF80010CA680240102802D1002AF9D101E0002AF6D07068DC
:205E200024F01EFAD8F8C0100020C8F8C400C8F8C00008741AE700BFFEFFFF0FC401001056
:205E40002DE9F04F8BB08246807E24F077FDA8B1DAF81C1008460691087878B180000130CE
:205E600026F091FF40B1044626F050FA1EF024F948B1204626F085FF102600E00226304609
:205E80000BB0BDE8F08F069804F1010B4FF00008049400F10509002007900020059006989C
:205EA000007880457CD239F8035CBAF80C609AF81A40204631462A4620F024F80746204691
:205EC00031462A4608AB1FF068FDFF2F18BF00280FD18720079AD1B201320BF821000BEB8F
:205EE000810019F8041C0792417039F8031C418002E019F8040C20B109F10E0908F10108AE
:205F0000CDE719F8010C9DF82610884205D19DF82710490703D48C20DCE78D20DAE77449B7
:205F2000B9F800304FF6FF74B9F802200968A3424FF0160408BF002A1CD017FB04110A81B7
:205F4000CB8023F09DFD40B369490022086817FB0400C0F80E200868D9F8065017FB040069
:205F600000F10E0419F8010C25F0E4FC02462046294610E017FB041000210422C0F80E10BB
:205F8000D0F80A10C0F806105948006817FB040101F10E00123126F041F901200590ABE756
:205FA0000598049D012840F08280504C504F162620783A6800FB06F1562026F069FC30B9CB
:205FC00020783A6800FB06F1562026F067FC4948802100781AF008FE47480478A00026F02B
:205FE000D2FE002863D0454F8146224609F10101781C3AB150F8013C1430013A41F8013CBE
:206000000431F6E73C48069490F800B0BBF1000F33D0394E01204FF000085FFA88F15945FB
:206020002BD2000625D0386958B1D0E90041396126F0A7FE387B01383873204626F0A1FEBD
:20604000F1E730780138C1B23070890051FA80F107EB810257F821105368D2E90345C7E9CC
:2060600000131189C7E90345398100211161117300E0002008F10108CFE707F02BFB049D34
:20608000069E0024A6420FD009EB84004188407821F01CFBFF2805D019F8241000EB8000A4
:2060A00007F820100134EDE7484626F06AFE07982870000604BF012028809AF80A10BAF875
:2060C0000C209AF81A0000260123CDE900332B46CDE902160AF10E0115F046F9284626F0A4
:2060E00050FE24F06BFC20F077FDC8E60C6E0020646D00200A6E00200E6E0020A05F0020C7
:206100002DE9F04F9BB00446008889460B2100F00700022808BF1421002808BF0F21607EF8
:2061200001EB0008404626F0A0FE002800F09380214602220746022626F038F92088BD1C3E
:2061400000F00700022811D018BB0020261D04228DF8040001A83146043026F027F9284660
:206160003146042226F022F9BD1D12E08DF8046001A804F1080608220430314626F016F9F6
:2061800028463146082226F011F9207C07F10B05B87204F114012846042226F007F9207EB0
:2061A0002871607E68710635627E52B1E169002951D0284626F0FAF8E069667E26F0FFFC29
:2061C000354404F12001284626F03CFD94F82200DFF8D0A15FFA88F23946A8700AF1080010
:2061E0001FF0FEF9002800F0D98080F80090002680464FF0FF300DF11F09ADF86800CDE9DD
:206200001800ADF81860CDE9046601A809F1020B09F10607041D042E1FD8F0B2494621F0E6
:206220002CFD05460D2814D00A2D19D09DF804009DF81F10484040070BD12046394604229E
:2062400025F0C2F860B920465946082225F0BCF830B90136DFE71020A1E00D2D00F0968087
:20626000514DF2208DF81900A88CADF81A009DF81F00410634D5022009F122010A228DF8E9
:20628000180018A825F0A0F880B904AC09F12A0126F065FC26F072FB40B1E98A81810146C4
:2062A00094E84C004CC198F80010817309F12C0118A80A2225F088F880B904AC09F13401B5
:2062C00026F04DFC26F05AFB40B1E98A8181014694E82C002CC198F8001081739DF81F006A
:2062E00040B2B0F1FF3F22DC01208DF8180001A81EF045F9ADF8100026F040FBB8B1044663
:206300009DF82000800604D401A81EF038F9A08105E004F10C0009F10B0126F093FC04A824
:20632000214690E82C002CC198F80000A0739DF82000C0072AD001208DF818009DF85500A4
:20634000C0070FD004AC09F1370126F008FC26F015FB38B105460C3009F1390126F072FC4D
:2063600025F01FFE9DF8550080070FD504AC09F13B0126F0F4FB26F001FB38B105460C3029
:2063800009F13D0126F05EFC25F00BFE07483221006826F0FCFB064826F013FD01201BB0C0
:2063A000BDE8F08F1C240020C05E0020846D0020386400202DE9F04F87B0851C83462846EA
:2063C00026F00DFC01AC06461821204625F0AEFD9BF801A004F10B002946009526F074FC88
:2063E0006FF001009BF80A1002240122ADF8180000208DF81A408DF80C0001F00800C1F34D
:20640000C007890782EAD00507D4002808BF0124B946A8460027002507E004244FF0000965
:206420004FF00008002808BF03248548007850EA0A000BD0834890F82600082809D125F003
:2064400045FE00285AD0BAF1010F57D14FF0C30901E04FF0C2090025BAF1000F10D07F4848
:20646000007890B9BAF1010F0FD1002E55D00020214601228DF81A0001A815F007FF0AE086
:2064800001A81CF0F9FE86B91CE001A82146524615F0FCFEB6B17179BAF1020F41F04002EE
:2064A000727104BF41F0600171719BF80A10490603D5717941F080017171B17900240131F0
:2064C000B17100E00124B0FA80F149090D422CD107D1002D18BF814641F20100494619F06D
:2064E00088FD14B900981AF0E5FEBDF818004FF6FE71884218BF26F050FC16E0DEB332790F
:20650000A24218BFBAF1020F12D1D01EC0B201281BD857EA050020D12AE0022021460122B8
:206520008DF81A0001A815F0B1FE07B0BDE8F08F4FF00009009953468DF81A903088ADF87E
:20654000180026F00AFC012586E7501EC0B201280ED849EA0800012807D1308823F0A0F9E5
:2065600050B93088ADF8180008E0308826F015FC00981AF09FFE0026BDF818004FF6FE71F0
:2065800088421ED122F0C0FF10B1BDF8180011E0BAF1000F04D02C4D288823F081F930B1CD
:2065A0009BF80A0000F0020021F07AFD00E02888ADF818004FF6FE71884202D14FF0C70917
:2065C00049E79BF80A200099534626F0C6FB10B14FF001093FE71D48016811B1BDF8180038
:2065E0008847BDF818000099224607F09FFA0646174818490A6800784FF4803126F02BFB48
:2066000001211548C17096B1AAF10100C0B2012807D81020BAF1020F08BF0820717908435D
:2066200070714FF0000901258DF81A9014E74FF6FE7000254FF001090026ADF818000BE7EB
:20664000CC230020C05E00209426002050220020036E002038F00200EC2400201C25002035
:206660002DE9F04F8DB0044600209A4616460F46CDE90B00CDE9090087488568804616F085
:2066800044FA1C2803D016F040FA1B281BD1308840F60201884218BFB0F5C15F03D1F07BA0
:2066A000022810D93EE043F6070188420BD196F82400032807D33069784940F0806020F091
:2066C000604088422ED100206FB366B3387825FA00F0C00726D03046002126F04EFB7048CC
:2066E000C4E90176006880B109A800900CA90BAA0AAB30460BF022FA0B980B214FF6FF726B
:20670000502323F0CBFFFF280CD025F05FFF654F06467878012802D840B1012070E03046E8
:2067200026F069FA00200DB0BDE8F08F0BF07AF95D480DF10409016841F0020101605B4820
:20674000C8F80000484625F0B9FDDFF864B15A494A469BF801009BF8005003905548283002
:2067600020F0CAFE554856494A4620F0C5FE484625F0DCFCDFF84C81534A19214B46029584
:2067800040461FF0A3F9514A08F11C001A214B461FF09CF94E484F4926F0E9F94E484F4954
:2067A00026F0E5F94E48006810F4402F06D04D4A07F128000421002323F05AFB9BF80200A2
:2067C00010B10D2011F0BEFB08F1400025F0F8F808F1380025F0F4F843490020072238761E
:2067E000B8843862386181F860200521C7E902103E49F96138700420002123F0FFFF78787A
:206800002C4941F8204001307870304626F0F3F9BAF1000F06D10DF1040A354920225046E6
:2068200026F026FBDAE90012BAF81000DAE90635002AB2FA82F608BF40F6C4126261216027
:2068400060832563760926764FF4FA76C4E9036201226276274AC4E90722C4E90923DAF800
:206860000C0000B12062DAF8140000B16062DAF8080000B1E06104F13800C82125F056FB38
:2068800004F15000002123F0F9FF1B4904F1B80026F06DF9204646E7CC2108400F0000051E
:2068A00060250020481D002000200940110000E058EF0200E81E002069AF020088650020BE
:2068C0001D6E0100A81F002051F9010081DC0100F4630020959E0200B063002015AF0200F7
:2068E000B44F00500D290200385F002001280100D4EC02001B6E010075CC02002DE9F04F48
:2069000087B000240293002A00F03D81074603A892460E464FF0200B10300190504610F8B2
:20692000011B25290CD0002900F02A81022EC0F0D980013E002F00F0D48007F8011BD1E096
